:060000000A128A110C280F
:10000800FE00030EF1000A08F2000A128A119A286B
:100018000A128A110F28F60183010A128A115E2832
:10002800831603130F088F3940388F000F140130DF
:10003800831603178800890101308316031385008E
:1000480010308700831203130712831603138601E7
:10005800831203138501870186010C13831603138A
:100068000C170B178B17831203131F083F394038DF
:100078009F00831603131F129F12C33083120313AA
:100088009F05831603139F13831203131F14033052
:10009800F300F30B4D28F030831203139405141268
:1000A80094168316031314179417760883120313F0
:1000B800930008000A128A1114200A128A11831266
:1000C80003139F186828692870280330F400F40B7C
:1000D8006B28831203139F148517760893008316E1
:1000E8000313141C782879287328831203138513A3
:1000F800051785170430F5009130F400F40B8228B9
:10010800F50B8228831203138513FF30930083169F
:100118000313141C902891288B28831203131308A7
:100128008600051363280A128A110C288312031308
:100138000C1F9F28A028AE281F0CF000700C0F3948
:10014800003A031DA828A928AD281E08F000700849
:10015800F6000C1372088A00710E8300FE0E7E0EE4
:0201680009008C
:08400000FF3FFF3FFF3FFF3FC0
:04400E00D420FF3F7C
:00000001FF
